{"abi":[{"type":"constructor","inputs":[{"name":"_verifier","type":"address","internalType":"contract IVerifier"}],"stateMutability":"nonpayable"},{"type":"function","name":"MIN_DURATION","inputs":[],"outputs":[{"name":"","type":"uint256","internalType":"uint256"}],"stateMutability":"view"},{"type":"function","name":"balanceOf","inputs":[{"name":"account","type":"address","internalType":"address"},{"name":"id","type":"uint256","internalType":"uint256"}],"outputs":[{"name":"","type":"uint256","internalType":"uint256"}],"stateMutability":"view"},{"type":"function","name":"balanceOfBatch","inputs":[{"name":"accounts","type":"address[]","internalType":"address[]"},{"name":"ids","type":"uint256[]","internalType":"uint256[]"}],"outputs":[{"name":"","type":"uint256[]","internalType":"uint256[]"}],"stateMutability":"view"},{"type":"function","name":"contractURI","inputs":[],"outputs":[{"name":"","type":"string","internalType":"string"}],"stateMutability":"pure"},{"type":"function","name":"getCurrentPanagram","inputs":[],"outputs":[{"name":"","type":"bytes32","internalType":"bytes32"}],"stateMutability":"view"},{"type":"function","name":"getCurrentRoundStatus","inputs":[],"outputs":[{"name":"","type":"address","internalType":"address"}],"stateMutability":"view"},{"type":"function","name":"isApprovedForAll","inputs":[{"name":"account","type":"address","internalType":"address"},{"name":"operator","type":"address","internalType":"address"}],"outputs":[{"name":"","type":"bool","internalType":"bool"}],"stateMutability":"view"},{"type":"function","name":"makeGuess","inputs":[{"name":"proof","type":"bytes","internalType":"bytes"}],"outputs":[{"name":"","type":"bool","internalType":"bool"}],"stateMutability":"nonpayable"},{"type":"function","name":"newRound","inputs":[{"name":"_correctAnswer","type":"bytes32","internalType":"bytes32"}],"outputs":[],"stateMutability":"nonpayable"},{"type":"function","name":"owner","inputs":[],"outputs":[{"name":"","type":"address","internalType":"address"}],"stateMutability":"view"},{"type":"function","name":"renounceOwnership","inputs":[],"outputs":[],"stateMutability":"nonpayable"},{"type":"function","name":"s_answer","inputs":[],"outputs":[{"name":"","type":"bytes32","internalType":"bytes32"}],"stateMutability":"view"},{"type":"function","name":"s_currentRound","inputs":[],"outputs":[{"name":"","type":"uint256","internalType":"uint256"}],"stateMutability":"view"},{"type":"function","name":"s_currentRoundWinner","inputs":[],"outputs":[{"name":"","type":"address","internalType":"address"}],"stateMutability":"view"},{"type":"function","name":"s_lastCorrectGuessRound","inputs":[{"name":"","type":"address","internalType":"address"}],"outputs":[{"name":"","type":"uint256","internalType":"uint256"}],"stateMutability":"view"},{"type":"function","name":"s_roundStartTime","inputs":[],"outputs":[{"name":"","type":"uint256","internalType":"uint256"}],"stateMutability":"view"},{"type":"function","name":"s_verifier","inputs":[],"outputs":[{"name":"","type":"address","internalType":"contract IVerifier"}],"stateMutability":"view"},{"type":"function","name":"s_winnerWins","inputs":[{"name":"","type":"address","internalType":"address"}],"outputs":[{"name":"","type":"uint256","internalType":"uint256"}],"stateMutability":"view"},{"type":"function","name":"safeBatchTransferFrom","inputs":[{"name":"from","type":"address","internalType":"address"},{"name":"to","type":"address","internalType":"address"},{"name":"ids","type":"uint256[]","internalType":"uint256[]"},{"name":"values","type":"uint256[]","internalType":"uint256[]"},{"name":"data","type":"bytes","internalType":"bytes"}],"outputs":[],"stateMutability":"nonpayable"},{"type":"function","name":"safeTransferFrom","inputs":[{"name":"from","type":"address","internalType":"address"},{"name":"to","type":"address","internalType":"address"},{"name":"id","type":"uint256","internalType":"uint256"},{"name":"value","type":"uint256","internalType":"uint256"},{"name":"data","type":"bytes","internalType":"bytes"}],"outputs":[],"stateMutability":"nonpayable"},{"type":"function","name":"setApprovalForAll","inputs":[{"name":"operator","type":"address","internalType":"address"},{"name":"approved","type":"bool","internalType":"bool"}],"outputs":[],"stateMutability":"nonpayable"},{"type":"function","name":"setVerifier","inputs":[{"name":"_verifier","type":"address","internalType":"contract IVerifier"}],"outputs":[],"stateMutability":"nonpayable"},{"type":"function","name":"supportsInterface","inputs":[{"name":"interfaceId","type":"bytes4","internalType":"bytes4"}],"outputs":[{"name":"","type":"bool","internalType":"bool"}],"stateMutability":"view"},{"type":"function","name":"transferOwnership","inputs":[{"name":"newOwner","type":"address","internalType":"address"}],"outputs":[],"stateMutability":"nonpayable"},{"type":"function","name":"uri","inputs":[{"name":"","type":"uint256","internalType":"uint256"}],"outputs":[{"name":"","type":"string","internalType":"string"}],"stateMutability":"view"},{"type":"event","name":"ApprovalForAll","inputs":[{"name":"account","type":"address","indexed":true,"internalType":"address"},{"name":"operator","type":"address","indexed":true,"internalType":"address"},{"name":"approved","type":"bool","indexed":false,"internalType":"bool"}],"anonymous":false},{"type":"event","name":"OwnershipTransferred","inputs":[{"name":"previousOwner","type":"address","indexed":true,"internalType":"address"},{"name":"newOwner","type":"address","indexed":true,"internalType":"address"}],"anonymous":false},{"type":"event","name":"Panagram__NFTMinted","inputs":[{"name":"winner","type":"address","indexed":false,"internalType":"address"},{"name":"tokenId","type":"uint256","indexed":false,"internalType":"uint256"}],"anonymous":false},{"type":"event","name":"Panagram__ProofSucceeded","inputs":[{"name":"result","type":"bool","indexed":false,"internalType":"bool"}],"anonymous":false},{"type":"event","name":"Panagram__RoundStarted","inputs":[],"anonymous":false},{"type":"event","name":"Panagram__VerifierUpdated","inputs":[{"name":"verifier","type":"address","indexed":false,"internalType":"contract IVerifier"}],"anonymous":false},{"type":"event","name":"TransferBatch","inputs":[{"name":"operator","type":"address","indexed":true,"internalType":"address"},{"name":"from","type":"address","indexed":true,"internalType":"address"},{"name":"to","type":"address","indexed":true,"internalType":"address"},{"name":"ids","type":"uint256[]","indexed":false,"internalType":"uint256[]"},{"name":"values","type":"uint256[]","indexed":false,"internalType":"uint256[]"}],"anonymous":false},{"type":"event","name":"TransferSingle","inputs":[{"name":"operator","type":"address","indexed":true,"internalType":"address"},{"name":"from","type":"address","indexed":true,"internalType":"address"},{"name":"to","type":"address","indexed":true,"internalType":"address"},{"name":"id","type":"uint256","indexed":false,"internalType":"uint256"},{"name":"value","type":"uint256","indexed":false,"internalType":"uint256"}],"anonymous":false},{"type":"event","name":"URI","inputs":[{"name":"value","type":"string","indexed":false,"internalType":"string"},{"name":"id","type":"uint256","indexed":true,"internalType":"uint256"}],"anonymous":false},{"type":"error","name":"ERC1155InsufficientBalance","inputs":[{"name":"sender","type":"address","internalType":"address"},{"name":"balance","type":"uint256","internalType":"uint256"},{"name":"needed","type":"uint256","internalType":"uint256"},{"name":"tokenId","type":"uint256","internalType":"uint256"}]},{"type":"error","name":"ERC1155InvalidApprover","inputs":[{"name":"approver","type":"address","internalType":"address"}]},{"type":"error","name":"ERC1155InvalidArrayLength","inputs":[{"name":"idsLength","type":"uint256","internalType":"uint256"},{"name":"valuesLength","type":"uint256","internalType":"uint256"}]},{"type":"error","name":"ERC1155InvalidOperator","inputs":[{"name":"operator","type":"address","internalType":"address"}]},{"type":"error","name":"ERC1155InvalidReceiver","inputs":[{"name":"receiver","type":"address","internalType":"address"}]},{"type":"error","name":"ERC1155InvalidSender","inputs":[{"name":"sender","type":"address","internalType":"address"}]},{"type":"error","name":"ERC1155MissingApprovalForAll","inputs":[{"name":"operator","type":"address","internalType":"address"},{"name":"owner","type":"address","internalType":"address"}]},{"type":"error","name":"OwnableInvalidOwner","inputs":[{"name":"owner","type":"address","internalType":"address"}]},{"type":"error","name":"OwnableUnauthorizedAccount","inputs":[{"name":"account","type":"address","internalType":"address"}]},{"type":"error","name":"Panagram__AlreadyAnsweredCorrectly","inputs":[]},{"type":"error","name":"Panagram__FirstPanagramNotSet","inputs":[]},{"type":"error","name":"Panagram__IncorrectGuess","inputs":[]},{"type":"error","name":"Panagram__InvalidTokenId","inputs":[]},{"type":"error","name":"Panagram__MinTimeNotPassed","inputs":[{"name":"mintTimePassed","type":"uint256","internalType":"uint256"},{"name":"currentTimePassed","type":"uint256","internalType":"uint256"}]},{"type":"error","name":"Panagram__NoRoundWinner","inputs":[]}],"bytecode":{"object":"0x6080604052612a30600a55348015610015575f5ffd5b506040516136ac3803806136ac8339818101604052810190610037919061026c565b336040518060800160405280604c8152602001613660604c91396100608161012760201b60201c565b505f73ffffffffffffffffffffffffffffffffffffffff168173ffffffffffffffffffffffffffffffffffffffff16036100d1575f6040517f1e4fbdf70000000000000000000000000000000000000000000000000000000081526004016100c891906102a6565b60405180910390fd5b6100e08161013a60201b60201c565b508060045f6101000a81548173ffffffffffffffffffffffffffffffffffffffff021916908373ffffffffffffffffffffffffffffffffffffffff160217905550506105cb565b806002908161013691906104fc565b5050565b5f60035f9054906101000a900473ffffffffffffffffffffffffffffffffffffffff1690508160035f6101000a81548173ffffffffffffffffffffffffffffffffffffffff021916908373ffffffffffffffffffffffffffffffffffffffff1602179055508173ffffffffffffffffffffffffffffffffffffffff168173ffffffffffffffffffffffffffffffffffffffff167f8be0079c531659141344cd1fd0a4f28419497f9722a3daafe3b4186f6b6457e060405160405180910390a35050565b5f5ffd5b5f73ffffffffffffffffffffffffffffffffffffffff82169050919050565b5f61022a82610201565b9050919050565b5f61023b82610220565b9050919050565b61024b81610231565b8114610255575f5ffd5b50565b5f8151905061026681610242565b92915050565b5f60208284031215610281576102806101fd565b5b5f61028e84828501610258565b91505092915050565b6102a081610220565b82525050565b5f6020820190506102b95f830184610297565b92915050565b5f81519050919050565b7f4e487b71000000000000000000000000000000000000000000000000000000005f52604160045260245ffd5b7f4e487b71000000000000000000000000000000000000000000000000000000005f52602260045260245ffd5b5f600282049050600182168061033a57607f821691505b60208210810361034d5761034c6102f6565b5b50919050565b5f819050815f5260205f209050919050565b5f6020601f8301049050919050565b5f82821b905092915050565b5f600883026103af7fffffffffffffffffffffffffffffffffffffffffffffffffffffffffffffffff82610374565b6103b98683610374565b95508019841693508086168417925050509392505050565b5f819050919050565b5f819050919050565b5f6103fd6103f86103f3846103d1565b6103da565b6103d1565b9050919050565b5f819050919050565b610416836103e3565b61042a61042282610404565b848454610380565b825550505050565b5f5f905090565b610441610432565b61044c81848461040d565b505050565b5b8181101561046f576104645f82610439565b600181019050610452565b5050565b601f8211156104b45761048581610353565b61048e84610365565b8101602085101561049d578190505b6104b16104a985610365565b830182610451565b50505b505050565b5f82821c905092915050565b5f6104d45f19846008026104b9565b1980831691505092915050565b5f6104ec83836104c5565b9150826002028217905092915050565b610505826102bf565b67ffffffffffffffff81111561051e5761051d6102c9565b5b6105288254610323565b610533828285610473565b5f60209050601f831160018114610564575f8415610552578287015190505b61055c85826104e1565b8655506105c3565b601f19841661057286610353565b5f5b8281101561059957848901518255600182019150602085019450602081019050610574565b868310156105b657848901516105b2601f8916826104c5565b8355505b6001600288020188555050505b505050505050565b613088806105d85f395ff3fe608060405234801561000f575f5ffd5b5060043610610170575f3560e01c8063715018a6116100dc578063c5c1676d11610095578063e8a3d4851161006f578063e8a3d4851461044c578063e985e9c51461046a578063f242432a1461049a578063f2fde38b146104b657610170565b8063c5c1676d146103e0578063da730836146103fe578063e890cd591461041c57610170565b8063715018a61461034457806376f865f91461034e5780637d1ca52c1461036c5780638da5cb5b14610388578063a22cb465146103a6578063b6a6d177146103c257610170565b80633dc09e051161012e5780633dc09e051461025c5780633e7fbd061461028c578063463e4069146102aa5780634e1273f4146102c85780635437988d146102f85780635cb2b4471461031457610170565b8062fdd58e1461017457806301ffc9a7146101a45780630d31d835146101d45780630e89341c146101f25780632eb2c2d614610222578063305da2db1461023e575b5f5ffd5b61018e60048036038101906101899190612008565b6104d2565b60405161019b9190612055565b60405180910390f35b6101be60048036038101906101b991906120c3565b610527565b6040516101cb9190612108565b60405180910390f35b6101dc610608565b6040516101e99190612130565b60405180910390f35b61020c60048036038101906102079190612149565b610630565b60405161021991906121e4565b60405180910390f35b61023c600480360381019061023791906123f4565b6106c2565b005b610246610769565b60405161025391906124d7565b60405180910390f35b61027660048036038101906102719190612549565b61076f565b6040516102839190612108565b60405180910390f35b610294610be3565b6040516102a19190612055565b60405180910390f35b6102b2610be9565b6040516102bf91906124d7565b60405180910390f35b6102e260048036038101906102dd9190612654565b610bf2565b6040516102ef9190612781565b60405180910390f35b610312600480360381019061030d91906127dc565b610cfc565b005b61032e60048036038101906103299190612807565b610d7e565b60405161033b9190612055565b60405180910390f35b61034c610d93565b005b610356610da6565b6040516103639190612130565b60405180910390f35b6103866004803603810190610381919061285c565b610dcb565b005b610390610f68565b60405161039d9190612130565b60405180910390f35b6103c060048036038101906103bb91906128b1565b610f90565b005b6103ca610fa6565b6040516103d79190612055565b60405180910390f35b6103e8610fac565b6040516103f59190612055565b60405180910390f35b610406610fb2565b604051610413919061294a565b60405180910390f35b61043660048036038101906104319190612807565b610fd7565b6040516104439190612055565b60405180910390f35b610454610fec565b60405161046191906121e4565b60405180910390f35b610484600480360381019061047f9190612963565b61100c565b6040516104919190612108565b60405180910390f35b6104b460048036038101906104af91906129a1565b61109a565b005b6104d060048036038101906104cb9190612807565b611141565b005b5f5f5f8381526020019081526020015f205f8473ffffffffffffffffffffffffffffffffffffffff1673ffffffffffffffffffffffffffffffffffffffff1681526020019081526020015f2054905092915050565b5f7fd9b67a26000000000000000000000000000000000000000000000000000000007bffffffffffffffffffffffffffffffffffffffffffffffffffffffff1916827bffffffffffffffffffffffffffffffffffffffffffffffffffffffff191614806105f157507f0e89341c000000000000000000000000000000000000000000000000000000007bffffffffffffffffffffffffffffffffffffffffffffffffffffffff1916827bffffffffffffffffffffffffffffffffffffffffffffffffffffffff1916145b806106015750610600826111c5565b5b9050919050565b5f60065f9054906101000a900473ffffffffffffffffffffffffffffffffffffffff16905090565b60606002805461063f90612a61565b80601f016020809104026020016040519081016040528092919081815260200182805461066b90612a61565b80156106b65780601f1061068d576101008083540402835291602001916106b6565b820191905f5260205f20905b81548152906001019060200180831161069957829003601f168201915b50505050509050919050565b5f6106cb61122e565b90508073ffffffffffffffffffffffffffffffffffffffff168673ffffffffffffffffffffffffffffffffffffffff1614158015610710575061070e868261100c565b155b156107545780866040517fe237d92200000000000000000000000000000000000000000000000000000000815260040161074b929190612a91565b60405180910390fd5b6107618686868686611235565b505050505050565b60095481565b5f5f600554036107ab576040517f29db9c1d00000000000000000000000000000000000000000000000000000000815260040160405180910390fd5b5f600267ffffffffffffffff8111156107c7576107c6612208565b5b6040519080825280602002602001820160405280156107f55781602001602082028036833780820191505090505b50905060095460405160200161080b9190612ad8565b60405160208183030381529060405280519060200120815f8151811061083457610833612af2565b5b6020026020010181815250503373ffffffffffffffffffffffffffffffffffffffff165f1b8160018151811061086d5761086c612af2565b5b60200260200101818152505060055460085f3373ffffffffffffffffffffffffffffffffffffffff1673ffffffffffffffffffffffffffffffffffffffff1681526020019081526020015f2054036108f1576040517f80baf78400000000000000000000000000000000000000000000000000000000815260040160405180910390fd5b5f60045f9054906101000a900473ffffffffffffffffffffffffffffffffffffffff1673ffffffffffffffffffffffffffffffffffffffff1663ea50d0e48686856040518463ffffffff1660e01b815260040161095093929190612c12565b602060405180830381865afa15801561096b573d5f5f3e3d5ffd5b505050506040513d601f19601f8201168201806040525081019061098f9190612c5d565b90507f47aad10b2c3d31c559a3aaf85583d8a1755466b10544ed29a39a1525c3386b74816040516109c09190612108565b60405180910390a1806109ff576040517f987eab0000000000000000000000000000000000000000000000000000000000815260040160405180910390fd5b60055460085f3373ffffffffffffffffffffffffffffffffffffffff1673ffffffffffffffffffffffffffffffffffffffff1681526020019081526020015f20819055505f73ffffffffffffffffffffffffffffffffffffffff1660065f9054906101000a900473ffffffffffffffffffffffffffffffffffffffff1673ffffffffffffffffffffffffffffffffffffffff1603610b82573360065f6101000a81548173ffffffffffffffffffffffffffffffffffffffff021916908373ffffffffffffffffffffffffffffffffffffffff16021790555060075f3373ffffffffffffffffffffffffffffffffffffffff1673ffffffffffffffffffffffffffffffffffffffff1681526020019081526020015f205f815480929190610b2490612cb5565b9190505550610b44335f600160405180602001604052805f815250611329565b7f4d59c8ade697dae17ee35b0818791d4b82600a0f336e3c8cd4490b0094f381c0335f604051610b75929190612d35565b60405180910390a1610bd8565b610b9d3360018060405180602001604052805f815250611329565b7f4d59c8ade697dae17ee35b0818791d4b82600a0f336e3c8cd4490b0094f381c0336001604051610bcf929190612d95565b60405180910390a15b809250505092915050565b600b5481565b5f600954905090565b60608151835114610c3e57815183516040517f5b059991000000000000000000000000000000000000000000000000000000008152600401610c35929190612dbc565b60405180910390fd5b5f835167ffffffffffffffff811115610c5a57610c59612208565b5b604051908082528060200260200182016040528015610c885781602001602082028036833780820191505090505b5090505f5f90505b8451811015610cf157610cc7610caf82876113be90919063ffffffff16565b610cc283876113d190919063ffffffff16565b6104d2565b828281518110610cda57610cd9612af2565b5b602002602001018181525050806001019050610c90565b508091505092915050565b610d046113e4565b8060045f6101000a81548173ffffffffffffffffffffffffffffffffffffffff021916908373ffffffffffffffffffffffffffffffffffffffff1602179055507f883b8cf648874db062c8c59bb4627112c9548dd038592ff91451c6d4df38dcbb81604051610d73919061294a565b60405180910390a150565b6007602052805f5260405f205f915090505481565b610d9b6113e4565b610da45f61146b565b565b60065f9054906101000a900473ffffffffffffffffffffffffffffffffffffffff1681565b610dd36113e4565b5f600b5403610def5742600b8190555080600981905550610f22565b600a54600b54610dff9190612de3565b421015610e5457600a54600b5442610e179190612e16565b6040517f5af8b00a000000000000000000000000000000000000000000000000000000008152600401610e4b929190612dbc565b60405180910390fd5b5f73ffffffffffffffffffffffffffffffffffffffff1660065f9054906101000a900473ffffffffffffffffffffffffffffffffffffffff1673ffffffffffffffffffffffffffffffffffffffff1603610eda576040517fc47dfa5900000000000000000000000000000000000000000000000000000000815260040160405180910390fd5b806009819055505f60065f6101000a81548173ffffffffffffffffffffffffffffffffffffffff021916908373ffffffffffffffffffffffffffffffffffffffff1602179055505b60055f815480929190610f3490612cb5565b91905055507fbf6b3125752d5eef17649b981c8b2be3c7e3b743fa64915a061a6ce2c903f55460405160405180910390a150565b5f60035f9054906101000a900473ffffffffffffffffffffffffffffffffffffffff16905090565b610fa2610f9b61122e565b838361152e565b5050565b600a5481565b60055481565b60045f9054906101000a900473ffffffffffffffffffffffffffffffffffffffff1681565b6008602052805f5260405f205f915090505481565b606060405180608001604052806052815260200161300160529139905090565b5f60015f8473ffffffffffffffffffffffffffffffffffffffff1673ffffffffffffffffffffffffffffffffffffffff1681526020019081526020015f205f8373ffffffffffffffffffffffffffffffffffffffff1673ffffffffffffffffffffffffffffffffffffffff1681526020019081526020015f205f9054906101000a900460ff16905092915050565b5f6110a361122e565b90508073ffffffffffffffffffffffffffffffffffffffff168673ffffffffffffffffffffffffffffffffffffffff16141580156110e857506110e6868261100c565b155b1561112c5780866040517fe237d922000000000000000000000000000000000000000000000000000000008152600401611123929190612a91565b60405180910390fd5b6111398686868686611697565b505050505050565b6111496113e4565b5f73ffffffffffffffffffffffffffffffffffffffff168173ffffffffffffffffffffffffffffffffffffffff16036111b9575f6040517f1e4fbdf70000000000000000000000000000000000000000000000000000000081526004016111b09190612130565b60405180910390fd5b6111c28161146b565b50565b5f7f01ffc9a7000000000000000000000000000000000000000000000000000000007bffffffffffffffffffffffffffffffffffffffffffffffffffffffff1916827bffffffffffffffffffffffffffffffffffffffffffffffffffffffff1916149050919050565b5f33905090565b5f73ffffffffffffffffffffffffffffffffffffffff168473ffffffffffffffffffffffffffffffffffffffff16036112a5575f6040517f57f447ce00000000000000000000000000000000000000000000000000000000815260040161129c9190612130565b60405180910390fd5b5f73ffffffffffffffffffffffffffffffffffffffff168573ffffffffffffffffffffffffffffffffffffffff1603611315575f6040517f01a8351400000000000000000000000000000000000000000000000000000000815260040161130c9190612130565b60405180910390fd5b611322858585858561179d565b5050505050565b5f73ffffffffffffffffffffffffffffffffffffffff168473ffffffffffffffffffffffffffffffffffffffff1603611399575f6040517f57f447ce0000000000000000000000000000000000000000000000000000000081526004016113909190612130565b60405180910390fd5b5f5f6113a58585611849565b915091506113b65f8784848761179d565b505050505050565b5f60208202602084010151905092915050565b5f60208202602084010151905092915050565b6113ec61122e565b73ffffffffffffffffffffffffffffffffffffffff1661140a610f68565b73ffffffffffffffffffffffffffffffffffffffff16146114695761142d61122e565b6040517f118cdaa70000000000000000000000000000000000000000000000000000000081526004016114609190612130565b60405180910390fd5b565b5f60035f9054906101000a900473ffffffffffffffffffffffffffffffffffffffff1690508160035f6101000a81548173ffffffffffffffffffffffffffffffffffffffff021916908373ffffffffffffffffffffffffffffffffffffffff1602179055508173ffffffffffffffffffffffffffffffffffffffff168173ffffffffffffffffffffffffffffffffffffffff167f8be0079c531659141344cd1fd0a4f28419497f9722a3daafe3b4186f6b6457e060405160405180910390a35050565b5f73ffffffffffffffffffffffffffffffffffffffff168273ffffffffffffffffffffffffffffffffffffffff160361159e575f6040517fced3e1000000000000000000000000000000000000000000000000000000000081526004016115959190612130565b60405180910390fd5b8060015f8573ffffffffffffffffffffffffffffffffffffffff1673ffffffffffffffffffffffffffffffffffffffff1681526020019081526020015f205f8473ffffffffffffffffffffffffffffffffffffffff1673ffffffffffffffffffffffffffffffffffffffff1681526020019081526020015f205f6101000a81548160ff0219169083151502179055508173ffffffffffffffffffffffffffffffffffffffff168373ffffffffffffffffffffffffffffffffffffffff167f17307eab39ab6107e8899845ad3d59bd9653f200f220920489ca2b5937696c318360405161168a9190612108565b60405180910390a3505050565b5f73ffffffffffffffffffffffffffffffffffffffff168473ffffffffffffffffffffffffffffffffffffffff1603611707575f6040517f57f447ce0000000000000000000000000000000000000000000000000000000081526004016116fe9190612130565b60405180910390fd5b5f73ffffffffffffffffffffffffffffffffffffffff168573ffffffffffffffffffffffffffffffffffffffff1603611777575f6040517f01a8351400000000000000000000000000000000000000000000000000000000815260040161176e9190612130565b60405180910390fd5b5f5f6117838585611849565b91509150611794878784848761179d565b50505050505050565b6117a985858585611879565b5f73ffffffffffffffffffffffffffffffffffffffff168473ffffffffffffffffffffffffffffffffffffffff1614611842575f6117e561122e565b90506001845103611831575f6118045f866113d190919063ffffffff16565b90505f61181a5f866113d190919063ffffffff16565b905061182a838989858589611c0c565b5050611840565b61183f818787878787611dbb565b5b505b5050505050565b60608060405191506001825283602083015260408201905060018152826020820152604081016040529250929050565b80518251146118c357815181516040517f5b0599910000000000000000000000000000000000000000000000000000000081526004016118ba929190612dbc565b60405180910390fd5b5f6118cc61122e565b90505f5f90505b8351811015611acb575f6118f082866113d190919063ffffffff16565b90505f61190683866113d190919063ffffffff16565b90505f73ffffffffffffffffffffffffffffffffffffffff168873ffffffffffffffffffffffffffffffffffffffff1614611a29575f5f5f8481526020019081526020015f205f8a73ffffffffffffffffffffffffffffffffffffffff1673ffffffffffffffffffffffffffffffffffffffff1681526020019081526020015f20549050818110156119d557888183856040517f03dee4c50000000000000000000000000000000000000000000000000000000081526004016119cc9493929190612e49565b60405180910390fd5b8181035f5f8581526020019081526020015f205f8b73ffffffffffffffffffffffffffffffffffffffff1673ffffffffffffffffffffffffffffffffffffffff1681526020019081526020015f2081905550505b5f73ffffffffffffffffffffffffffffffffffffffff168773ffffffffffffffffffffffffffffffffffffffff1614611abe57805f5f8481526020019081526020015f205f8973ffffffffffffffffffffffffffffffffffffffff1673ffffffffffffffffffffffffffffffffffffffff1681526020019081526020015f205f828254611ab69190612de3565b925050819055505b50508060010190506118d3565b506001835103611b86575f611ae95f856113d190919063ffffffff16565b90505f611aff5f856113d190919063ffffffff16565b90508573ffffffffffffffffffffffffffffffffffffffff168773ffffffffffffffffffffffffffffffffffffffff168473ffffffffffffffffffffffffffffffffffffffff167fc3d58168c5ae7397731d063d5bbf3d657854427343f4c083240f7aacaa2d0f628585604051611b77929190612dbc565b60405180910390a45050611c05565b8373ffffffffffffffffffffffffffffffffffffffff168573ffffffffffffffffffffffffffffffffffffffff168273ffffffffffffffffffffffffffffffffffffffff167f4a39dc06d4c0dbc64b70af90fd698a233a518aa5d07e595d983b8c0526c8f7fb8686604051611bfc929190612e8c565b60405180910390a45b5050505050565b5f8473ffffffffffffffffffffffffffffffffffffffff163b1115611db3578373ffffffffffffffffffffffffffffffffffffffff1663f23a6e6187878686866040518663ffffffff1660e01b8152600401611c6c959493929190612f03565b6020604051808303815f875af1925050508015611ca757506040513d601f19601f82011682018060405250810190611ca49190612f6f565b60015b611d28573d805f8114611cd5576040519150601f19603f3d011682016040523d82523d5f602084013e611cda565b606091505b505f815103611d2057846040517f57f447ce000000000000000000000000000000000000000000000000000000008152600401611d179190612130565b60405180910390fd5b805181602001fd5b63f23a6e6160e01b7bffffffffffffffffffffffffffffffffffffffffffffffffffffffff1916817bffffffffffffffffffffffffffffffffffffffffffffffffffffffff191614611db157846040517f57f447ce000000000000000000000000000000000000000000000000000000008152600401611da89190612130565b60405180910390fd5b505b505050505050565b5f8473ffffffffffffffffffffffffffffffffffffffff163b1115611f62578373ffffffffffffffffffffffffffffffffffffffff1663bc197c8187878686866040518663ffffffff1660e01b8152600401611e1b959493929190612f9a565b6020604051808303815f875af1925050508015611e5657506040513d601f19601f82011682018060405250810190611e539190612f6f565b60015b611ed7573d805f8114611e84576040519150601f19603f3d011682016040523d82523d5f602084013e611e89565b606091505b505f815103611ecf57846040517f57f447ce000000000000000000000000000000000000000000000000000000008152600401611ec69190612130565b60405180910390fd5b805181602001fd5b63bc197c8160e01b7bffffffffffffffffffffffffffffffffffffffffffffffffffffffff1916817bffffffffffffffffffffffffffffffffffffffffffffffffffffffff191614611f6057846040517f57f447ce000000000000000000000000000000000000000000000000000000008152600401611f579190612130565b60405180910390fd5b505b505050505050565b5f604051905090565b5f5ffd5b5f5ffd5b5f73ffffffffffffffffffffffffffffffffffffffff82169050919050565b5f611fa482611f7b565b9050919050565b611fb481611f9a565b8114611fbe575f5ffd5b50565b5f81359050611fcf81611fab565b92915050565b5f819050919050565b611fe781611fd5565b8114611ff1575f5ffd5b50565b5f8135905061200281611fde565b92915050565b5f5f6040838503121561201e5761201d611f73565b5b5f61202b85828601611fc1565b925050602061203c85828601611ff4565b9150509250929050565b61204f81611fd5565b82525050565b5f6020820190506120685f830184612046565b92915050565b5f7fffffffff0000000000000000000000000000000000000000000000000000000082169050919050565b6120a28161206e565b81146120ac575f5ffd5b50565b5f813590506120bd81612099565b92915050565b5f602082840312156120d8576120d7611f73565b5b5f6120e5848285016120af565b91505092915050565b5f8115159050919050565b612102816120ee565b82525050565b5f60208201905061211b5f8301846120f9565b92915050565b61212a81611f9a565b82525050565b5f6020820190506121435f830184612121565b92915050565b5f6020828403121561215e5761215d611f73565b5b5f61216b84828501611ff4565b91505092915050565b5f81519050919050565b5f82825260208201905092915050565b8281835e5f83830152505050565b5f601f19601f8301169050919050565b5f6121b682612174565b6121c0818561217e565b93506121d081856020860161218e565b6121d98161219c565b840191505092915050565b5f6020820190508181035f8301526121fc81846121ac565b905092915050565b5f5ffd5b7f4e487b71000000000000000000000000000000000000000000000000000000005f52604160045260245ffd5b61223e8261219c565b810181811067ffffffffffffffff8211171561225d5761225c612208565b5b80604052505050565b5f61226f611f6a565b905061227b8282612235565b919050565b5f67ffffffffffffffff82111561229a57612299612208565b5b602082029050602081019050919050565b5f5ffd5b5f6122c16122bc84612280565b612266565b905080838252602082019050602084028301858111156122e4576122e36122ab565b5b835b8181101561230d57806122f98882611ff4565b8452602084019350506020810190506122e6565b5050509392505050565b5f82601f83011261232b5761232a612204565b5b813561233b8482602086016122af565b91505092915050565b5f5ffd5b5f67ffffffffffffffff82111561236257612361612208565b5b61236b8261219c565b9050602081019050919050565b828183375f83830152505050565b5f61239861239384612348565b612266565b9050828152602081018484840111156123b4576123b3612344565b5b6123bf848285612378565b509392505050565b5f82601f8301126123db576123da612204565b5b81356123eb848260208601612386565b91505092915050565b5f5f5f5f5f60a0868803121561240d5761240c611f73565b5b5f61241a88828901611fc1565b955050602061242b88828901611fc1565b945050604086013567ffffffffffffffff81111561244c5761244b611f77565b5b61245888828901612317565b935050606086013567ffffffffffffffff81111561247957612478611f77565b5b61248588828901612317565b925050608086013567ffffffffffffffff8111156124a6576124a5611f77565b5b6124b2888289016123c7565b9150509295509295909350565b5f819050919050565b6124d1816124bf565b82525050565b5f6020820190506124ea5f8301846124c8565b92915050565b5f5ffd5b5f5f83601f84011261250957612508612204565b5b8235905067ffffffffffffffff811115612526576125256124f0565b5b602083019150836001820283011115612542576125416122ab565b5b9250929050565b5f5f6020838503121561255f5761255e611f73565b5b5f83013567ffffffffffffffff81111561257c5761257b611f77565b5b612588858286016124f4565b92509250509250929050565b5f67ffffffffffffffff8211156125ae576125ad612208565b5b602082029050602081019050919050565b5f6125d16125cc84612594565b612266565b905080838252602082019050602084028301858111156125f4576125f36122ab565b5b835b8181101561261d57806126098882611fc1565b8452602084019350506020810190506125f6565b5050509392505050565b5f82601f83011261263b5761263a612204565b5b813561264b8482602086016125bf565b91505092915050565b5f5f6040838503121561266a57612669611f73565b5b5f83013567ffffffffffffffff81111561268757612686611f77565b5b61269385828601612627565b925050602083013567ffffffffffffffff8111156126b4576126b3611f77565b5b6126c085828601612317565b9150509250929050565b5f81519050919050565b5f82825260208201905092915050565b5f819050602082019050919050565b6126fc81611fd5565b82525050565b5f61270d83836126f3565b60208301905092915050565b5f602082019050919050565b5f61272f826126ca565b61273981856126d4565b9350612744836126e4565b805f5b8381101561277457815161275b8882612702565b975061276683612719565b925050600181019050612747565b5085935050505092915050565b5f6020820190508181035f8301526127998184612725565b905092915050565b5f6127ab82611f9a565b9050919050565b6127bb816127a1565b81146127c5575f5ffd5b50565b5f813590506127d6816127b2565b92915050565b5f602082840312156127f1576127f0611f73565b5b5f6127fe848285016127c8565b91505092915050565b5f6020828403121561281c5761281b611f73565b5b5f61282984828501611fc1565b91505092915050565b61283b816124bf565b8114612845575f5ffd5b50565b5f8135905061285681612832565b92915050565b5f6020828403121561287157612870611f73565b5b5f61287e84828501612848565b91505092915050565b612890816120ee565b811461289a575f5ffd5b50565b5f813590506128ab81612887565b92915050565b5f5f604083850312156128c7576128c6611f73565b5b5f6128d485828601611fc1565b92505060206128e58582860161289d565b9150509250929050565b5f819050919050565b5f61291261290d61290884611f7b565b6128ef565b611f7b565b9050919050565b5f612923826128f8565b9050919050565b5f61293482612919565b9050919050565b6129448161292a565b82525050565b5f60208201905061295d5f83018461293b565b92915050565b5f5f6040838503121561297957612978611f73565b5b5f61298685828601611fc1565b925050602061299785828601611fc1565b9150509250929050565b5f5f5f5f5f60a086880312156129ba576129b9611f73565b5b5f6129c788828901611fc1565b95505060206129d888828901611fc1565b94505060406129e988828901611ff4565b93505060606129fa88828901611ff4565b925050608086013567ffffffffffffffff811115612a1b57612a1a611f77565b5b612a27888289016123c7565b9150509295509295909350565b7f4e487b71000000000000000000000000000000000000000000000000000000005f52602260045260245ffd5b5f6002820490506001821680612a7857607f821691505b602082108103612a8b57612a8a612a34565b5b50919050565b5f604082019050612aa45f830185612121565b612ab16020830184612121565b9392505050565b5f819050919050565b612ad2612acd826124bf565b612ab8565b82525050565b5f612ae38284612ac1565b60208201915081905092915050565b7f4e487b71000000000000000000000000000000000000000000000000000000005f52603260045260245ffd5b5f82825260208201905092915050565b5f612b3a8385612b1f565b9350612b47838584612378565b612b508361219c565b840190509392505050565b5f81519050919050565b5f82825260208201905092915050565b5f819050602082019050919050565b612b8d816124bf565b82525050565b5f612b9e8383612b84565b60208301905092915050565b5f602082019050919050565b5f612bc082612b5b565b612bca8185612b65565b9350612bd583612b75565b805f5b83811015612c05578151612bec8882612b93565b9750612bf783612baa565b925050600181019050612bd8565b5085935050505092915050565b5f6040820190508181035f830152612c2b818587612b2f565b90508181036020830152612c3f8184612bb6565b9050949350505050565b5f81519050612c5781612887565b92915050565b5f60208284031215612c7257612c71611f73565b5b5f612c7f84828501612c49565b91505092915050565b7f4e487b71000000000000000000000000000000000000000000000000000000005f52601160045260245ffd5b5f612cbf82611fd5565b91507fffffffffffffffffffffffffffffffffffffffffffffffffffffffffffffffff8203612cf157612cf0612c88565b5b600182019050919050565b5f819050919050565b5f612d1f612d1a612d1584612cfc565b6128ef565b611fd5565b9050919050565b612d2f81612d05565b82525050565b5f604082019050612d485f830185612121565b612d556020830184612d26565b9392505050565b5f819050919050565b5f612d7f612d7a612d7584612d5c565b6128ef565b611fd5565b9050919050565b612d8f81612d65565b82525050565b5f604082019050612da85f830185612121565b612db56020830184612d86565b9392505050565b5f604082019050612dcf5f830185612046565b612ddc6020830184612046565b9392505050565b5f612ded82611fd5565b9150612df883611fd5565b9250828201905080821115612e1057612e0f612c88565b5b92915050565b5f612e2082611fd5565b9150612e2b83611fd5565b9250828203905081811115612e4357612e42612c88565b5b92915050565b5f608082019050612e5c5f830187612121565b612e696020830186612046565b612e766040830185612046565b612e836060830184612046565b95945050505050565b5f6040820190508181035f830152612ea48185612725565b90508181036020830152612eb88184612725565b90509392505050565b5f81519050919050565b5f612ed582612ec1565b612edf8185612b1f565b9350612eef81856020860161218e565b612ef88161219c565b840191505092915050565b5f60a082019050612f165f830188612121565b612f236020830187612121565b612f306040830186612046565b612f3d6060830185612046565b8181036080830152612f4f8184612ecb565b90509695505050505050565b5f81519050612f6981612099565b92915050565b5f60208284031215612f8457612f83611f73565b5b5f612f9184828501612f5b565b91505092915050565b5f60a082019050612fad5f830188612121565b612fba6020830187612121565b8181036040830152612fcc8186612725565b90508181036060830152612fe08185612725565b90508181036080830152612ff48184612ecb565b9050969550505050505056fe697066733a2f2f62616679626569637166633469706b6c653334746771763367683767636377686d7232327164673770366b366f786f6e3235356d6e7762366373692f636f6c6c656374696f6e2e6a736f6ea264697066735822122043adb638d8e4f64a40675ccfb07133f2470a3a938843fd97d1df6da984341fc964736f6c634300081d0033697066733a2f2f62616679626569637166633469706b6c653334746771763367683767636377686d7232327164673770366b366f786f6e3235356d6e7762366373692f7b69647d2e6a736f6e","linkReferences":{}},"methodIdentifiers":{"MIN_DURATION()":"b6a6d177","balanceOf(address,uint256)":"00fdd58e","balanceOfBatch(address[],uint256[])":"4e1273f4","contractURI()":"e8a3d485","getCurrentPanagram()":"463e4069","getCurrentRoundStatus()":"0d31d835","isApprovedForAll(address,address)":"e985e9c5","makeGuess(bytes)":"3dc09e05","newRound(bytes32)":"7d1ca52c","owner()":"8da5cb5b","renounceOwnership()":"715018a6","s_answer()":"305da2db","s_currentRound()":"c5c1676d","s_currentRoundWinner()":"76f865f9","s_lastCorrectGuessRound(address)":"e890cd59","s_roundStartTime()":"3e7fbd06","s_verifier()":"da730836","s_winnerWins(address)":"5cb2b447","safeBatchTransferFrom(address,address,uint256[],uint256[],bytes)":"2eb2c2d6","safeTransferFrom(address,address,uint256,uint256,bytes)":"f242432a","setApprovalForAll(address,bool)":"a22cb465","setVerifier(address)":"5437988d","supportsInterface(bytes4)":"01ffc9a7","transferOwnership(address)":"f2fde38b","uri(uint256)":"0e89341c"},"id":38}