{"abi":[{"type":"constructor","inputs":[{"name":"_verifier","type":"address","internalType":"contract IVerifier"}],"stateMutability":"nonpayable"},{"type":"function","name":"MIN_DURATION","inputs":[],"outputs":[{"name":"","type":"uint256","internalType":"uint256"}],"stateMutability":"view"},{"type":"function","name":"balanceOf","inputs":[{"name":"account","type":"address","internalType":"address"},{"name":"id","type":"uint256","internalType":"uint256"}],"outputs":[{"name":"","type":"uint256","internalType":"uint256"}],"stateMutability":"view"},{"type":"function","name":"balanceOfBatch","inputs":[{"name":"accounts","type":"address[]","internalType":"address[]"},{"name":"ids","type":"uint256[]","internalType":"uint256[]"}],"outputs":[{"name":"","type":"uint256[]","internalType":"uint256[]"}],"stateMutability":"view"},{"type":"function","name":"contractURI","inputs":[],"outputs":[{"name":"","type":"string","internalType":"string"}],"stateMutability":"pure"},{"type":"function","name":"getCurrentPanagram","inputs":[],"outputs":[{"name":"","type":"bytes32","internalType":"bytes32"}],"stateMutability":"view"},{"type":"function","name":"getCurrentRoundStatus","inputs":[],"outputs":[{"name":"","type":"address","internalType":"address"}],"stateMutability":"view"},{"type":"function","name":"isApprovedForAll","inputs":[{"name":"account","type":"address","internalType":"address"},{"name":"operator","type":"address","internalType":"address"}],"outputs":[{"name":"","type":"bool","internalType":"bool"}],"stateMutability":"view"},{"type":"function","name":"makeGuess","inputs":[{"name":"proof","type":"bytes","internalType":"bytes"}],"outputs":[{"name":"","type":"bool","internalType":"bool"}],"stateMutability":"nonpayable"},{"type":"function","name":"newRound","inputs":[{"name":"_correctAnswer","type":"bytes32","internalType":"bytes32"}],"outputs":[],"stateMutability":"nonpayable"},{"type":"function","name":"owner","inputs":[],"outputs":[{"name":"","type":"address","internalType":"address"}],"stateMutability":"view"},{"type":"function","name":"renounceOwnership","inputs":[],"outputs":[],"stateMutability":"nonpayable"},{"type":"function","name":"s_answer","inputs":[],"outputs":[{"name":"","type":"bytes32","internalType":"bytes32"}],"stateMutability":"view"},{"type":"function","name":"s_currentRound","inputs":[],"outputs":[{"name":"","type":"uint256","internalType":"uint256"}],"stateMutability":"view"},{"type":"function","name":"s_currentRoundWinner","inputs":[],"outputs":[{"name":"","type":"address","internalType":"address"}],"stateMutability":"view"},{"type":"function","name":"s_lastCorrectGuessRound","inputs":[{"name":"","type":"address","internalType":"address"}],"outputs":[{"name":"","type":"uint256","internalType":"uint256"}],"stateMutability":"view"},{"type":"function","name":"s_roundStartTime","inputs":[],"outputs":[{"name":"","type":"uint256","internalType":"uint256"}],"stateMutability":"view"},{"type":"function","name":"s_verifier","inputs":[],"outputs":[{"name":"","type":"address","internalType":"contract IVerifier"}],"stateMutability":"view"},{"type":"function","name":"s_winnerWins","inputs":[{"name":"","type":"address","internalType":"address"}],"outputs":[{"name":"","type":"uint256","internalType":"uint256"}],"stateMutability":"view"},{"type":"function","name":"safeBatchTransferFrom","inputs":[{"name":"from","type":"address","internalType":"address"},{"name":"to","type":"address","internalType":"address"},{"name":"ids","type":"uint256[]","internalType":"uint256[]"},{"name":"values","type":"uint256[]","internalType":"uint256[]"},{"name":"data","type":"bytes","internalType":"bytes"}],"outputs":[],"stateMutability":"nonpayable"},{"type":"function","name":"safeTransferFrom","inputs":[{"name":"from","type":"address","internalType":"address"},{"name":"to","type":"address","internalType":"address"},{"name":"id","type":"uint256","internalType":"uint256"},{"name":"value","type":"uint256","internalType":"uint256"},{"name":"data","type":"bytes","internalType":"bytes"}],"outputs":[],"stateMutability":"nonpayable"},{"type":"function","name":"setApprovalForAll","inputs":[{"name":"operator","type":"address","internalType":"address"},{"name":"approved","type":"bool","internalType":"bool"}],"outputs":[],"stateMutability":"nonpayable"},{"type":"function","name":"setVerifier","inputs":[{"name":"_verifier","type":"address","internalType":"contract IVerifier"}],"outputs":[],"stateMutability":"nonpayable"},{"type":"function","name":"supportsInterface","inputs":[{"name":"interfaceId","type":"bytes4","internalType":"bytes4"}],"outputs":[{"name":"","type":"bool","internalType":"bool"}],"stateMutability":"view"},{"type":"function","name":"transferOwnership","inputs":[{"name":"newOwner","type":"address","internalType":"address"}],"outputs":[],"stateMutability":"nonpayable"},{"type":"function","name":"uri","inputs":[{"name":"","type":"uint256","internalType":"uint256"}],"outputs":[{"name":"","type":"string","internalType":"string"}],"stateMutability":"view"},{"type":"event","name":"ApprovalForAll","inputs":[{"name":"account","type":"address","indexed":true,"internalType":"address"},{"name":"operator","type":"address","indexed":true,"internalType":"address"},{"name":"approved","type":"bool","indexed":false,"internalType":"bool"}],"anonymous":false},{"type":"event","name":"OwnershipTransferred","inputs":[{"name":"previousOwner","type":"address","indexed":true,"internalType":"address"},{"name":"newOwner","type":"address","indexed":true,"internalType":"address"}],"anonymous":false},{"type":"event","name":"Panagram__NFTMinted","inputs":[{"name":"winner","type":"address","indexed":false,"internalType":"address"},{"name":"tokenId","type":"uint256","indexed":false,"internalType":"uint256"}],"anonymous":false},{"type":"event","name":"Panagram__ProofSucceeded","inputs":[{"name":"result","type":"bool","indexed":false,"internalType":"bool"}],"anonymous":false},{"type":"event","name":"Panagram__RoundStarted","inputs":[],"anonymous":false},{"type":"event","name":"Panagram__VerifierUpdated","inputs":[{"name":"verifier","type":"address","indexed":false,"internalType":"contract IVerifier"}],"anonymous":false},{"type":"event","name":"TransferBatch","inputs":[{"name":"operator","type":"address","indexed":true,"internalType":"address"},{"name":"from","type":"address","indexed":true,"internalType":"address"},{"name":"to","type":"address","indexed":true,"internalType":"address"},{"name":"ids","type":"uint256[]","indexed":false,"internalType":"uint256[]"},{"name":"values","type":"uint256[]","indexed":false,"internalType":"uint256[]"}],"anonymous":false},{"type":"event","name":"TransferSingle","inputs":[{"name":"operator","type":"address","indexed":true,"internalType":"address"},{"name":"from","type":"address","indexed":true,"internalType":"address"},{"name":"to","type":"address","indexed":true,"internalType":"address"},{"name":"id","type":"uint256","indexed":false,"internalType":"uint256"},{"name":"value","type":"uint256","indexed":false,"internalType":"uint256"}],"anonymous":false},{"type":"event","name":"URI","inputs":[{"name":"value","type":"string","indexed":false,"internalType":"string"},{"name":"id","type":"uint256","indexed":true,"internalType":"uint256"}],"anonymous":false},{"type":"error","name":"ERC1155InsufficientBalance","inputs":[{"name":"sender","type":"address","internalType":"address"},{"name":"balance","type":"uint256","internalType":"uint256"},{"name":"needed","type":"uint256","internalType":"uint256"},{"name":"tokenId","type":"uint256","internalType":"uint256"}]},{"type":"error","name":"ERC1155InvalidApprover","inputs":[{"name":"approver","type":"address","internalType":"address"}]},{"type":"error","name":"ERC1155InvalidArrayLength","inputs":[{"name":"idsLength","type":"uint256","internalType":"uint256"},{"name":"valuesLength","type":"uint256","internalType":"uint256"}]},{"type":"error","name":"ERC1155InvalidOperator","inputs":[{"name":"operator","type":"address","internalType":"address"}]},{"type":"error","name":"ERC1155InvalidReceiver","inputs":[{"name":"receiver","type":"address","internalType":"address"}]},{"type":"error","name":"ERC1155InvalidSender","inputs":[{"name":"sender","type":"address","internalType":"address"}]},{"type":"error","name":"ERC1155MissingApprovalForAll","inputs":[{"name":"operator","type":"address","internalType":"address"},{"name":"owner","type":"address","internalType":"address"}]},{"type":"error","name":"OwnableInvalidOwner","inputs":[{"name":"owner","type":"address","internalType":"address"}]},{"type":"error","name":"OwnableUnauthorizedAccount","inputs":[{"name":"account","type":"address","internalType":"address"}]},{"type":"error","name":"Panagram__AlreadyAnsweredCorrectly","inputs":[]},{"type":"error","name":"Panagram__FirstPanagramNotSet","inputs":[]},{"type":"error","name":"Panagram__IncorrectGuess","inputs":[]},{"type":"error","name":"Panagram__InvalidTokenId","inputs":[]},{"type":"error","name":"Panagram__MinTimeNotPassed","inputs":[{"name":"mintTimePassed","type":"uint256","internalType":"uint256"},{"name":"currentTimePassed","type":"uint256","internalType":"uint256"}]},{"type":"error","name":"Panagram__NoRoundWinner","inputs":[]}],"bytecode":{"object":"0x6080604052612a30600a55348015610015575f5ffd5b50604051611c1f380380611c1f83398101604081905261003491610115565b336040518060800160405280604c8152602001611bd3604c9139610057816100b4565b506001600160a01b03811661008557604051631e4fbdf760e01b81525f600482015260240160405180910390fd5b61008e816100c4565b50600480546001600160a01b0319166001600160a01b0392909216919091179055610294565b60026100c082826101da565b5050565b600380546001600160a01b038381166001600160a01b0319831681179093556040519116919082907f8be0079c531659141344cd1fd0a4f28419497f9722a3daafe3b4186f6b6457e0905f90a35050565b5f60208284031215610125575f5ffd5b81516001600160a01b038116811461013b575f5ffd5b9392505050565b634e487b7160e01b5f52604160045260245ffd5b600181811c9082168061016a57607f821691505b60208210810361018857634e487b7160e01b5f52602260045260245ffd5b50919050565b601f8211156101d557805f5260205f20601f840160051c810160208510156101b35750805b601f840160051c820191505b818110156101d2575f81556001016101bf565b50505b505050565b81516001600160401b038111156101f3576101f3610142565b610207816102018454610156565b8461018e565b6020601f821160018114610239575f83156102225750848201515b5f19600385901b1c1916600184901b1784556101d2565b5f84815260208120601f198516915b828110156102685787850151825560209485019460019092019101610248565b508482101561028557868401515f19600387901b60f8161c191681555b50505050600190811b01905550565b611932806102a15f395ff3fe608060405234801561000f575f5ffd5b506004361061016c575f3560e01c8063715018a6116100d9578063c5c1676d11610093578063e8a3d4851161006e578063e8a3d48514610328578063e985e9c514610330578063f242432a14610343578063f2fde38b14610356575f5ffd5b8063c5c1676d146102ed578063da730836146102f6578063e890cd5914610309575f5ffd5b8063715018a61461029257806376f865f91461029a5780637d1ca52c146102ad5780638da5cb5b146102c0578063a22cb465146102d1578063b6a6d177146102e4575f5ffd5b80633dc09e051161012a5780633dc09e051461021c5780633e7fbd061461022f578063463e4069146102385780634e1273f4146102405780635437988d146102605780635cb2b44714610273575f5ffd5b8062fdd58e1461017057806301ffc9a7146101965780630d31d835146101b95780630e89341c146101de5780632eb2c2d6146101fe578063305da2db14610213575b5f5ffd5b61018361017e36600461118b565b610369565b6040519081526020015b60405180910390f35b6101a96101a43660046111ca565b610390565b604051901515815260200161018d565b6006546001600160a01b03165b6040516001600160a01b03909116815260200161018d565b6101f16101ec3660046111ec565b6103df565b60405161018d9190611231565b61021161020c366004611381565b610471565b005b61018360095481565b6101a961022a366004611434565b6104dd565b610183600b5481565b600954610183565b61025361024e3660046114a2565b610797565b60405161018d91906115a1565b61021161026e3660046115b3565b610862565b6101836102813660046115b3565b60076020525f908152604090205481565b6102116108be565b6006546101c6906001600160a01b031681565b6102116102bb3660046111ec565b6108d1565b6003546001600160a01b03166101c6565b6102116102df3660046115db565b6109b7565b610183600a5481565b61018360055481565b6004546101c6906001600160a01b031681565b6101836103173660046115b3565b60086020525f908152604090205481565b6101f16109c6565b6101a961033e366004611612565b6109e6565b61021161035136600461163e565b610a13565b6102116103643660046115b3565b610a72565b5f818152602081815260408083206001600160a01b03861684529091529020545b92915050565b5f6001600160e01b03198216636cdb3d1360e11b14806103c057506001600160e01b031982166303a24d0760e21b145b8061038a57506301ffc9a760e01b6001600160e01b031983161461038a565b6060600280546103ee90611696565b80601f016020809104026020016040519081016040528092919081815260200182805461041a90611696565b80156104655780601f1061043c57610100808354040283529160200191610465565b820191905f5260205f20905b81548152906001019060200180831161044857829003601f168201915b50505050509050919050565b336001600160a01b0386168114801590610492575061049086826109e6565b155b156104c85760405163711bec9160e11b81526001600160a01b038083166004830152871660248201526044015b60405180910390fd5b6104d58686868686610aaf565b505050505050565b5f6005545f03610500576040516329db9c1d60e01b815260040160405180910390fd5b6040805160028082526060820183525f9260208301908036833701905050905060095460405160200161053591815260200190565b60405160208183030381529060405280519060200120815f8151811061055d5761055d6116ce565b6020908102919091010152805133908290600190811061057f5761057f6116ce565b602090810291909101810191909152600554335f9081526008909252604090912054036105bf5760405163202ebde160e21b815260040160405180910390fd5b60048054604051633a94343960e21b81525f926001600160a01b039092169163ea50d0e4916105f491899189918891016116e2565b602060405180830381865afa15801561060f573d5f5f3e3d5ffd5b505050506040513d601f19601f82011682018060405250810190610633919061175a565b90507f47aad10b2c3d31c559a3aaf85583d8a1755466b10544ed29a39a1525c3386b7481604051610668911515815260200190565b60405180910390a18061068d5760405162987eab60e81b815260040160405180910390fd5b600554335f908152600860205260409020556006546001600160a01b031661073a57600680546001600160a01b031916339081179091555f9081526007602052604081208054916106dd83611789565b91905055506106fd335f600160405180602001604052805f815250610b14565b604080513381525f60208201527f4d59c8ade697dae17ee35b0818791d4b82600a0f336e3c8cd4490b0094f381c0910160405180910390a161078f565b6107553360018060405180602001604052805f815250610b14565b60408051338152600160208201527f4d59c8ade697dae17ee35b0818791d4b82600a0f336e3c8cd4490b0094f381c0910160405180910390a15b949350505050565b606081518351146107c85781518351604051635b05999160e01b8152600481019290925260248201526044016104bf565b5f835167ffffffffffffffff8111156107e3576107e3611243565b60405190808252806020026020018201604052801561080c578160200160208202803683370190505b5090505f5b845181101561085a5760208082028601015161083590602080840287010151610369565b828281518110610847576108476116ce565b6020908102919091010152600101610811565b509392505050565b61086a610b6f565b600480546001600160a01b0319166001600160a01b0383169081179091556040519081527f883b8cf648874db062c8c59bb4627112c9548dd038592ff91451c6d4df38dcbb9060200160405180910390a150565b6108c6610b6f565b6108cf5f610b9c565b565b6108d9610b6f565b600b545f036108f05742600b556009819055610978565b600a54600b5461090091906117a1565b42101561093957600a54600b5461091790426117b4565b604051632d7c580560e11b8152600481019290925260248201526044016104bf565b6006546001600160a01b03166109625760405163c47dfa5960e01b815260040160405180910390fd5b6009819055600680546001600160a01b03191690555b60058054905f61098783611789565b90915550506040517fbf6b3125752d5eef17649b981c8b2be3c7e3b743fa64915a061a6ce2c903f554905f90a150565b6109c2338383610bed565b5050565b60606040518060800160405280604c81526020016118b1604c9139905090565b6001600160a01b039182165f90815260016020908152604080832093909416825291909152205460ff1690565b336001600160a01b0386168114801590610a345750610a3286826109e6565b155b15610a655760405163711bec9160e11b81526001600160a01b038083166004830152871660248201526044016104bf565b6104d58686868686610c81565b610a7a610b6f565b6001600160a01b038116610aa357604051631e4fbdf760e01b81525f60048201526024016104bf565b610aac81610b9c565b50565b6001600160a01b038416610ad857604051632bfa23e760e11b81525f60048201526024016104bf565b6001600160a01b038516610b0057604051626a0d4560e21b81525f60048201526024016104bf565b610b0d8585858585610d0d565b5050505050565b6001600160a01b038416610b3d57604051632bfa23e760e11b81525f60048201526024016104bf565b604080516001808252602082018690528183019081526060820185905260808201909252906104d55f87848487610d0d565b6003546001600160a01b031633146108cf5760405163118cdaa760e01b81523360048201526024016104bf565b600380546001600160a01b038381166001600160a01b0319831681179093556040519116919082907f8be0079c531659141344cd1fd0a4f28419497f9722a3daafe3b4186f6b6457e0905f90a35050565b6001600160a01b038216610c155760405162ced3e160e81b81525f60048201526024016104bf565b6001600160a01b038381165f81815260016020908152604080832094871680845294825291829020805460ff191686151590811790915591519182527f17307eab39ab6107e8899845ad3d59bd9653f200f220920489ca2b5937696c31910160405180910390a3505050565b6001600160a01b038416610caa57604051632bfa23e760e11b81525f60048201526024016104bf565b6001600160a01b038516610cd257604051626a0d4560e21b81525f60048201526024016104bf565b60408051600180825260208201869052818301908152606082018590526080820190925290610d048787848487610d0d565b50505050505050565b610d1985858585610d60565b6001600160a01b03841615610b0d5782513390600103610d525760208481015190840151610d4b838989858589610f6f565b50506104d5565b6104d5818787878787611090565b8051825114610d8f5781518151604051635b05999160e01b8152600481019290925260248201526044016104bf565b335f5b8351811015610e91576020818102858101820151908501909101516001600160a01b03881615610e43575f828152602081815260408083206001600160a01b038c16845290915290205481811015610e1d576040516303dee4c560e01b81526001600160a01b038a1660048201526024810182905260448101839052606481018490526084016104bf565b5f838152602081815260408083206001600160a01b038d16845290915290209082900390555b6001600160a01b03871615610e87575f828152602081815260408083206001600160a01b038b16845290915281208054839290610e819084906117a1565b90915550505b5050600101610d92565b508251600103610f115760208301515f906020840151909150856001600160a01b0316876001600160a01b0316846001600160a01b03167fc3d58168c5ae7397731d063d5bbf3d657854427343f4c083240f7aacaa2d0f628585604051610f02929190918252602082015260400190565b60405180910390a45050610b0d565b836001600160a01b0316856001600160a01b0316826001600160a01b03167f4a39dc06d4c0dbc64b70af90fd698a233a518aa5d07e595d983b8c0526c8f7fb8686604051610f609291906117c7565b60405180910390a45050505050565b6001600160a01b0384163b156104d55760405163f23a6e6160e01b81526001600160a01b0385169063f23a6e6190610fb390899089908890889088906004016117f4565b6020604051808303815f875af1925050508015610fed575060408051601f3d908101601f19168201909252610fea91810190611838565b60015b611054573d80801561101a576040519150601f19603f3d011682016040523d82523d5f602084013e61101f565b606091505b5080515f0361104c57604051632bfa23e760e11b81526001600160a01b03861660048201526024016104bf565b805181602001fd5b6001600160e01b0319811663f23a6e6160e01b14610d0457604051632bfa23e760e11b81526001600160a01b03861660048201526024016104bf565b6001600160a01b0384163b156104d55760405163bc197c8160e01b81526001600160a01b0385169063bc197c81906110d49089908990889088908890600401611853565b6020604051808303815f875af192505050801561110e575060408051601f3d908101601f1916820190925261110b91810190611838565b60015b61113b573d80801561101a576040519150601f19603f3d011682016040523d82523d5f602084013e61101f565b6001600160e01b0319811663bc197c8160e01b14610d0457604051632bfa23e760e11b81526001600160a01b03861660048201526024016104bf565b6001600160a01b0381168114610aac575f5ffd5b5f5f6040838503121561119c575f5ffd5b82356111a781611177565b946020939093013593505050565b6001600160e01b031981168114610aac575f5ffd5b5f602082840312156111da575f5ffd5b81356111e5816111b5565b9392505050565b5f602082840312156111fc575f5ffd5b5035919050565b5f81518084528060208401602086015e5f602082860101526020601f19601f83011685010191505092915050565b602081525f6111e56020830184611203565b634e487b7160e01b5f52604160045260245ffd5b604051601f8201601f1916810167ffffffffffffffff8111828210171561128057611280611243565b604052919050565b5f67ffffffffffffffff8211156112a1576112a1611243565b5060051b60200190565b5f82601f8301126112ba575f5ffd5b81356112cd6112c882611288565b611257565b8082825260208201915060208360051b8601019250858311156112ee575f5ffd5b602085015b8381101561130b5780358352602092830192016112f3565b5095945050505050565b5f82601f830112611324575f5ffd5b813567ffffffffffffffff81111561133e5761133e611243565b611351601f8201601f1916602001611257565b818152846020838601011115611365575f5ffd5b816020850160208301375f918101602001919091529392505050565b5f5f5f5f5f60a08688031215611395575f5ffd5b85356113a081611177565b945060208601356113b081611177565b9350604086013567ffffffffffffffff8111156113cb575f5ffd5b6113d7888289016112ab565b935050606086013567ffffffffffffffff8111156113f3575f5ffd5b6113ff888289016112ab565b925050608086013567ffffffffffffffff81111561141b575f5ffd5b61142788828901611315565b9150509295509295909350565b5f5f60208385031215611445575f5ffd5b823567ffffffffffffffff81111561145b575f5ffd5b8301601f8101851361146b575f5ffd5b803567ffffffffffffffff811115611481575f5ffd5b856020828401011115611492575f5ffd5b6020919091019590945092505050565b5f5f604083850312156114b3575f5ffd5b823567ffffffffffffffff8111156114c9575f5ffd5b8301601f810185136114d9575f5ffd5b80356114e76112c882611288565b8082825260208201915060208360051b850101925087831115611508575f5ffd5b6020840193505b8284101561153357833561152281611177565b82526020938401939091019061150f565b9450505050602083013567ffffffffffffffff811115611551575f5ffd5b61155d858286016112ab565b9150509250929050565b5f8151808452602084019350602083015f5b82811015611597578151865260209586019590910190600101611579565b5093949350505050565b602081525f6111e56020830184611567565b5f602082840312156115c3575f5ffd5b81356111e581611177565b8015158114610aac575f5ffd5b5f5f604083850312156115ec575f5ffd5b82356115f781611177565b91506020830135611607816115ce565b809150509250929050565b5f5f60408385031215611623575f5ffd5b823561162e81611177565b9150602083013561160781611177565b5f5f5f5f5f60a08688031215611652575f5ffd5b853561165d81611177565b9450602086013561166d81611177565b93506040860135925060608601359150608086013567ffffffffffffffff81111561141b575f5ffd5b600181811c908216806116aa57607f821691505b6020821081036116c857634e487b7160e01b5f52602260045260245ffd5b50919050565b634e487b7160e01b5f52603260045260245ffd5b60408152826040820152828460608301375f606084830101525f601f19601f85011682016060810160608483030160208501528085518083526080840191506020870193505f92505b8083101561174e578351825260208201915060208401935060018301925061172b565b50979650505050505050565b5f6020828403121561176a575f5ffd5b81516111e5816115ce565b634e487b7160e01b5f52601160045260245ffd5b5f6001820161179a5761179a611775565b5060010190565b8082018082111561038a5761038a611775565b8181038181111561038a5761038a611775565b604081525f6117d96040830185611567565b82810360208401526117eb8185611567565b95945050505050565b6001600160a01b03868116825285166020820152604081018490526060810183905260a0608082018190525f9061182d90830184611203565b979650505050505050565b5f60208284031215611848575f5ffd5b81516111e5816111b5565b6001600160a01b0386811682528516602082015260a0604082018190525f9061187e90830186611567565b82810360608401526118908186611567565b905082810360808401526118a48185611203565b9897505050505050505056fe697066733a2f2f62616679626569637166633469706b6c653334746771763367683767636377686d7232327164673770366b366f786f6e3235356d6e7762366373692f7b69647d2e6a736f6ea264697066735822122009b1f40a79935d7c2bccde26b68d3aa178a3bdddb325e7f49aac65ca2a1119f364736f6c634300081d0033697066733a2f2f62616679626569637166633469706b6c653334746771763367683767636377686d7232327164673770366b366f786f6e3235356d6e7762366373692f7b69647d2e6a736f6e","linkReferences":{}},"methodIdentifiers":{"MIN_DURATION()":"b6a6d177","balanceOf(address,uint256)":"00fdd58e","balanceOfBatch(address[],uint256[])":"4e1273f4","contractURI()":"e8a3d485","getCurrentPanagram()":"463e4069","getCurrentRoundStatus()":"0d31d835","isApprovedForAll(address,address)":"e985e9c5","makeGuess(bytes)":"3dc09e05","newRound(bytes32)":"7d1ca52c","owner()":"8da5cb5b","renounceOwnership()":"715018a6","s_answer()":"305da2db","s_currentRound()":"c5c1676d","s_currentRoundWinner()":"76f865f9","s_lastCorrectGuessRound(address)":"e890cd59","s_roundStartTime()":"3e7fbd06","s_verifier()":"da730836","s_winnerWins(address)":"5cb2b447","safeBatchTransferFrom(address,address,uint256[],uint256[],bytes)":"2eb2c2d6","safeTransferFrom(address,address,uint256,uint256,bytes)":"f242432a","setApprovalForAll(address,bool)":"a22cb465","setVerifier(address)":"5437988d","supportsInterface(bytes4)":"01ffc9a7","transferOwnership(address)":"f2fde38b","uri(uint256)":"0e89341c"},"id":40}